{
  "abi": [
    {
      "type": "constructor",
      "inputs": [
        {
          "name": "_strikePrice",
          "type": "uint256",
          "internalType": "uint256"
        },
        {
          "name": "_owner",
          "type": "address",
          "internalType": "address"
        },
        {
          "name": "_tradingPair",
          "type": "string",
          "internalType": "string"
        },
        {
          "name": "_maturityTime",
          "type": "uint256",
          "internalType": "uint256"
        },
        {
          "name": "_feePercentage",
          "type": "uint256",
          "internalType": "uint256"
        }
      ],
      "stateMutability": "nonpayable"
    },
    {
      "type": "function",
      "name": "bid",
      "inputs": [
        {
          "name": "side",
          "type": "uint8",
          "internalType": "enum BinaryOptionMarket.Side"
        }
      ],
      "outputs": [],
      "stateMutability": "payable"
    },
    {
      "type": "function",
      "name": "biddingStartTime",
      "inputs": [],
      "outputs": [
        {
          "name": "",
          "type": "uint256",
          "internalType": "uint256"
        }
      ],
      "stateMutability": "view"
    },
    {
      "type": "function",
      "name": "claimReward",
      "inputs": [],
      "outputs": [],
      "stateMutability": "nonpayable"
    },
    {
      "type": "function",
      "name": "currentPhase",
      "inputs": [],
      "outputs": [
        {
          "name": "",
          "type": "uint8",
          "internalType": "enum BinaryOptionMarket.Phase"
        }
      ],
      "stateMutability": "view"
    },
    {
      "type": "function",
      "name": "deployTime",
      "inputs": [],
      "outputs": [
        {
          "name": "",
          "type": "uint256",
          "internalType": "uint256"
        }
      ],
      "stateMutability": "view"
    },
    {
      "type": "function",
      "name": "expireMarket",
      "inputs": [],
      "outputs": [],
      "stateMutability": "nonpayable"
    },
    {
      "type": "function",
      "name": "feePercentage",
      "inputs": [],
      "outputs": [
        {
          "name": "",
          "type": "uint256",
          "internalType": "uint256"
        }
      ],
      "stateMutability": "view"
    },
    {
      "type": "function",
      "name": "fees",
      "inputs": [],
      "outputs": [
        {
          "name": "poolFee",
          "type": "uint256",
          "internalType": "uint256"
        },
        {
          "name": "creatorFee",
          "type": "uint256",
          "internalType": "uint256"
        },
        {
          "name": "refundFee",
          "type": "uint256",
          "internalType": "uint256"
        }
      ],
      "stateMutability": "view"
    },
    {
      "type": "function",
      "name": "hasClaimed",
      "inputs": [
        {
          "name": "",
          "type": "address",
          "internalType": "address"
        }
      ],
      "outputs": [
        {
          "name": "",
          "type": "bool",
          "internalType": "bool"
        }
      ],
      "stateMutability": "view"
    },
    {
      "type": "function",
      "name": "longBids",
      "inputs": [
        {
          "name": "",
          "type": "address",
          "internalType": "address"
        }
      ],
      "outputs": [
        {
          "name": "",
          "type": "uint256",
          "internalType": "uint256"
        }
      ],
      "stateMutability": "view"
    },
    {
      "type": "function",
      "name": "maturityTime",
      "inputs": [],
      "outputs": [
        {
          "name": "",
          "type": "uint256",
          "internalType": "uint256"
        }
      ],
      "stateMutability": "view"
    },
    {
      "type": "function",
      "name": "oracleDetails",
      "inputs": [],
      "outputs": [
        {
          "name": "strikePrice",
          "type": "uint256",
          "internalType": "uint256"
        },
        {
          "name": "finalPrice",
          "type": "string",
          "internalType": "string"
        }
      ],
      "stateMutability": "view"
    },
    {
      "type": "function",
      "name": "owner",
      "inputs": [],
      "outputs": [
        {
          "name": "",
          "type": "address",
          "internalType": "address"
        }
      ],
      "stateMutability": "view"
    },
    {
      "type": "function",
      "name": "positions",
      "inputs": [],
      "outputs": [
        {
          "name": "long",
          "type": "uint256",
          "internalType": "uint256"
        },
        {
          "name": "short",
          "type": "uint256",
          "internalType": "uint256"
        }
      ],
      "stateMutability": "view"
    },
    {
      "type": "function",
      "name": "renounceOwnership",
      "inputs": [],
      "outputs": [],
      "stateMutability": "nonpayable"
    },
    {
      "type": "function",
      "name": "resolveMarket",
      "inputs": [],
      "outputs": [],
      "stateMutability": "nonpayable"
    },
    {
      "type": "function",
      "name": "resolveTime",
      "inputs": [],
      "outputs": [
        {
          "name": "",
          "type": "uint256",
          "internalType": "uint256"
        }
      ],
      "stateMutability": "view"
    },
    {
      "type": "function",
      "name": "resolved",
      "inputs": [],
      "outputs": [
        {
          "name": "",
          "type": "bool",
          "internalType": "bool"
        }
      ],
      "stateMutability": "view"
    },
    {
      "type": "function",
      "name": "setStrikePrice",
      "inputs": [
        {
          "name": "_strikePrice",
          "type": "uint256",
          "internalType": "uint256"
        }
      ],
      "outputs": [],
      "stateMutability": "nonpayable"
    },
    {
      "type": "function",
      "name": "shortBids",
      "inputs": [
        {
          "name": "",
          "type": "address",
          "internalType": "address"
        }
      ],
      "outputs": [
        {
          "name": "",
          "type": "uint256",
          "internalType": "uint256"
        }
      ],
      "stateMutability": "view"
    },
    {
      "type": "function",
      "name": "startBidding",
      "inputs": [],
      "outputs": [],
      "stateMutability": "nonpayable"
    },
    {
      "type": "function",
      "name": "strikePrice",
      "inputs": [],
      "outputs": [
        {
          "name": "",
          "type": "uint256",
          "internalType": "uint256"
        }
      ],
      "stateMutability": "view"
    },
    {
      "type": "function",
      "name": "totalDeposited",
      "inputs": [],
      "outputs": [
        {
          "name": "",
          "type": "uint256",
          "internalType": "uint256"
        }
      ],
      "stateMutability": "view"
    },
    {
      "type": "function",
      "name": "tradingPair",
      "inputs": [],
      "outputs": [
        {
          "name": "",
          "type": "string",
          "internalType": "string"
        }
      ],
      "stateMutability": "view"
    },
    {
      "type": "function",
      "name": "transferOwnership",
      "inputs": [
        {
          "name": "newOwner",
          "type": "address",
          "internalType": "address"
        }
      ],
      "outputs": [],
      "stateMutability": "nonpayable"
    },
    {
      "type": "function",
      "name": "withdraw",
      "inputs": [],
      "outputs": [],
      "stateMutability": "nonpayable"
    },
    {
      "type": "event",
      "name": "Bid",
      "inputs": [
        {
          "name": "side",
          "type": "uint8",
          "indexed": false,
          "internalType": "enum BinaryOptionMarket.Side"
        },
        {
          "name": "account",
          "type": "address",
          "indexed": true,
          "internalType": "address"
        },
        {
          "name": "value",
          "type": "uint256",
          "indexed": false,
          "internalType": "uint256"
        }
      ],
      "anonymous": false
    },
    {
      "type": "event",
      "name": "MarketOutcome",
      "inputs": [
        {
          "name": "winningSide",
          "type": "uint8",
          "indexed": false,
          "internalType": "enum BinaryOptionMarket.Side"
        },
        {
          "name": "user",
          "type": "address",
          "indexed": true,
          "internalType": "address"
        },
        {
          "name": "isWinner",
          "type": "bool",
          "indexed": false,
          "internalType": "bool"
        }
      ],
      "anonymous": false
    },
    {
      "type": "event",
      "name": "MarketResolved",
      "inputs": [
        {
          "name": "finalPrice",
          "type": "string",
          "indexed": false,
          "internalType": "string"
        },
        {
          "name": "timeStamp",
          "type": "uint256",
          "indexed": false,
          "internalType": "uint256"
        }
      ],
      "anonymous": false
    },
    {
      "type": "event",
      "name": "OwnershipTransferred",
      "inputs": [
        {
          "name": "previousOwner",
          "type": "address",
          "indexed": true,
          "internalType": "address"
        },
        {
          "name": "newOwner",
          "type": "address",
          "indexed": true,
          "internalType": "address"
        }
      ],
      "anonymous": false
    },
    {
      "type": "event",
      "name": "PositionUpdated",
      "inputs": [
        {
          "name": "timestamp",
          "type": "uint256",
          "indexed": false,
          "internalType": "uint256"
        },
        {
          "name": "longAmount",
          "type": "uint256",
          "indexed": false,
          "internalType": "uint256"
        },
        {
          "name": "shortAmount",
          "type": "uint256",
          "indexed": false,
          "internalType": "uint256"
        },
        {
          "name": "totalDeposited",
          "type": "uint256",
          "indexed": false,
          "internalType": "uint256"
        }
      ],
      "anonymous": false
    },
    {
      "type": "event",
      "name": "RewardClaimed",
      "inputs": [
        {
          "name": "account",
          "type": "address",
          "indexed": true,
          "internalType": "address"
        },
        {
          "name": "value",
          "type": "uint256",
          "indexed": false,
          "internalType": "uint256"
        }
      ],
      "anonymous": false
    },
    {
      "type": "event",
      "name": "Withdrawal",
      "inputs": [
        {
          "name": "user",
          "type": "address",
          "indexed": true,
          "internalType": "address"
        },
        {
          "name": "amount",
          "type": "uint256",
          "indexed": false,
          "internalType": "uint256"
        }
      ],
      "anonymous": false
    },
    {
      "type": "error",
      "name": "OwnableInvalidOwner",
      "inputs": [
        {
          "name": "owner",
          "type": "address",
          "internalType": "address"
        }
      ]
    },
    {
      "type": "error",
      "name": "OwnableUnauthorizedAccount",
      "inputs": [
        {
          "name": "account",
          "type": "address",
          "internalType": "address"
        }
      ]
    }
  ],
  "bytecode": {
    "object": "0x608060405234801561000f575f5ffd5b50604051612ddc380380612ddc83398181016040528101906100319190610440565b835f73ffffffffffffffffffffffffffffffffffffffff168173ffffffffffffffffffffffffffffffffffffffff16036100a2575f6040517f1e4fbdf700000000000000000000000000000000000000000000000000000000815260040161009991906104e2565b60405180910390fd5b6100b1816101a560201b60201c565b504282116100f4576040517f08c379a00000000000000000000000000000000000000000000000000000000081526004016100eb9061057b565b60405180910390fd5b60018110158015610106575060c88111155b610145576040517f08c379a000000000000000000000000000000000000000000000000000000000815260040161013c906105e3565b60405180910390fd5b84600181905550826013908161015b9190610808565b50816011819055504260028190555080600d819055505f600c60016101000a81548160ff02191690836003811115610196576101956108d7565b5b02179055505050505050610904565b5f5f5f9054906101000a900473ffffffffffffffffffffffffffffffffffffffff169050815f5f6101000a81548173ffffffffffffffffffffffffffffffffffffffff021916908373ffffffffffffffffffffffffffffffffffffffff1602179055508173ffffffffffffffffffffffffffffffffffffffff168173ffffffffffffffffffffffffffffffffffffffff167f8be0079c531659141344cd1fd0a4f28419497f9722a3daafe3b4186f6b6457e060405160405180910390a35050565b5f604051905090565b5f5ffd5b5f5ffd5b5f819050919050565b61028981610277565b8114610293575f5ffd5b50565b5f815190506102a481610280565b92915050565b5f73ffffffffffffffffffffffffffffffffffffffff82169050919050565b5f6102d3826102aa565b9050919050565b6102e3816102c9565b81146102ed575f5ffd5b50565b5f815190506102fe816102da565b92915050565b5f5ffd5b5f5ffd5b5f601f19601f8301169050919050565b7f4e487b71000000000000000000000000000000000000000000000000000000005f52604160045260245ffd5b6103528261030c565b810181811067ffffffffffffffff821117156103715761037061031c565b5b80604052505050565b5f610383610266565b905061038f8282610349565b919050565b5f67ffffffffffffffff8211156103ae576103ad61031c565b5b6103b78261030c565b9050602081019050919050565b8281835e5f83830152505050565b5f6103e46103df84610394565b61037a565b905082815260208101848484011115610400576103ff610308565b5b61040b8482856103c4565b509392505050565b5f82601f83011261042757610426610304565b5b81516104378482602086016103d2565b91505092915050565b5f5f5f5f5f60a086880312156104595761045861026f565b5b5f61046688828901610296565b9550506020610477888289016102f0565b945050604086015167ffffffffffffffff81111561049857610497610273565b5b6104a488828901610413565b93505060606104b588828901610296565b92505060806104c688828901610296565b9150509295509295909350565b6104dc816102c9565b82525050565b5f6020820190506104f55f8301846104d3565b92915050565b5f82825260208201905092915050565b7f4d617475726974792074696d65206d75737420626520696e20746865206675745f8201527f7572650000000000000000000000000000000000000000000000000000000000602082015250565b5f6105656023836104fb565b91506105708261050b565b604082019050919050565b5f6020820190508181035f83015261059281610559565b9050919050565b7f466565206d757374206265206265747765656e20302e312520616e64203230255f82015250565b5f6105cd6020836104fb565b91506105d882610599565b602082019050919050565b5f6020820190508181035f8301526105fa816105c1565b9050919050565b5f81519050919050565b7f4e487b71000000000000000000000000000000000000000000000000000000005f52602260045260245ffd5b5f600282049050600182168061064f57607f821691505b6020821081036106625761066161060b565b5b50919050565b5f819050815f5260205f209050919050565b5f6020601f8301049050919050565b5f82821b905092915050565b5f600883026106c47fffffffffffffffffffffffffffffffffffffffffffffffffffffffffffffffff82610689565b6106ce8683610689565b95508019841693508086168417925050509392505050565b5f819050919050565b5f6107096107046106ff84610277565b6106e6565b610277565b9050919050565b5f819050919050565b610722836106ef565b61073661072e82610710565b848454610695565b825550505050565b5f5f905090565b61074d61073e565b610758818484610719565b505050565b5b8181101561077b576107705f82610745565b60018101905061075e565b5050565b601f8211156107c05761079181610668565b61079a8461067a565b810160208510156107a9578190505b6107bd6107b58561067a565b83018261075d565b50505b505050565b5f82821c905092915050565b5f6107e05f19846008026107c5565b1980831691505092915050565b5f6107f883836107d1565b9150826002028217905092915050565b61081182610601565b67ffffffffffffffff81111561082a5761082961031c565b5b6108348254610638565b61083f82828561077f565b5f60209050601f831160018114610870575f841561085e578287015190505b61086885826107ed565b8655506108cf565b601f19841661087e86610668565b5f5b828110156108a557848901518255600182019150602085019450602081019050610880565b868310156108c257848901516108be601f8916826107d1565b8355505b6001600288020188555050505b505050505050565b7f4e487b71000000000000000000000000000000000000000000000000000000005f52602160045260245ffd5b6124cb806109115f395ff3fe608060405260043610610180575f3560e01c80637d7b39e4116100d0578063b88a802f11610089578063d42f6e3911610063578063d42f6e39146104d4578063e488cd9f146104fe578063f2fde38b14610526578063ff50abdc1461054e57610180565b8063b88a802f14610469578063ba5b79821461047f578063c52987cf146104aa57610180565b80637d7b39e4146103925780638da5cb5b146103a857806398508ecd146103d25780639af1d35a146103fd5780639e891f3e14610429578063a001ecdd1461043f57610180565b80633f6fa6551161013d578063553fc57411610117578063553fc574146102ec578063715018a61461031657806373b2e80e1461032c5780637a40624b1461036857610180565b80633f6fa6551461025c5780634e8bfdaa1461028657806351b72dc5146102b057610180565b8063055ad42e1461018457806305ed76c4146101ae5780631955e146146101d85780632b9b55b31461021457806333500e261461022a5780633ccfd60b14610246575b5f5ffd5b34801561018f575f5ffd5b50610198610578565b6040516101a59190611706565b60405180910390f35b3480156101b9575f5ffd5b506101c261058b565b6040516101cf9190611737565b60405180910390f35b3480156101e3575f5ffd5b506101fe60048036038101906101f991906117ae565b610591565b60405161020b9190611737565b60405180910390f35b34801561021f575f5ffd5b506102286105a6565b005b610244600480360381019061023f91906117fc565b610836565b005b348015610251575f5ffd5b5061025a610aad565b005b348015610267575f5ffd5b50610270610b90565b60405161027d9190611841565b60405180910390f35b348015610291575f5ffd5b5061029a610ba2565b6040516102a79190611737565b60405180910390f35b3480156102bb575f5ffd5b506102d660048036038101906102d191906117ae565b610ba8565b6040516102e39190611737565b60405180910390f35b3480156102f7575f5ffd5b50610300610bbd565b60405161030d9190611737565b60405180910390f35b348015610321575f5ffd5b5061032a610bc3565b005b348015610337575f5ffd5b50610352600480360381019061034d91906117ae565b610bd6565b60405161035f9190611841565b60405180910390f35b348015610373575f5ffd5b5061037c610bf3565b6040516103899190611737565b60405180910390f35b34801561039d575f5ffd5b506103a6610bf9565b005b3480156103b3575f5ffd5b506103bc610caa565b6040516103c99190611869565b60405180910390f35b3480156103dd575f5ffd5b506103e6610cd1565b6040516103f49291906118f2565b60405180910390f35b348015610408575f5ffd5b50610411610d68565b60405161042093929190611920565b60405180910390f35b348015610434575f5ffd5b5061043d610d7f565b005b34801561044a575f5ffd5b50610453610e73565b6040516104609190611737565b60405180910390f35b348015610474575f5ffd5b5061047d610e79565b005b34801561048a575f5ffd5b506104936112b6565b6040516104a1929190611955565b60405180910390f35b3480156104b5575f5ffd5b506104be6112c7565b6040516104cb9190611737565b60405180910390f35b3480156104df575f5ffd5b506104e86112cd565b6040516104f5919061197c565b60405180910390f35b348015610509575f5ffd5b50610524600480360381019061051f91906119c6565b611359565b005b348015610531575f5ffd5b5061054c600480360381019061054791906117ae565b61136d565b005b348015610559575f5ffd5b506105626113f1565b60405161056f9190611737565b60405180910390f35b600c60019054906101000a900460ff1681565b60125481565b600e602052805f5260405f205f915090505481565b600160038111156105ba576105b9611693565b5b600c60019054906101000a900460ff1660038111156105dc576105db611693565b5b1461061c576040517f08c379a000000000000000000000000000000000000000000000000000000000815260040161061390611a3b565b60405180910390fd5b601154421015610661576040517f08c379a000000000000000000000000000000000000000000000000000000000815260040161065890611aa3565b60405180910390fd5b6002600c60016101000a81548160ff0219169083600381111561068757610686611693565b5b0217905550426012819055505f6040518060400160405280600281526020017f3130000000000000000000000000000000000000000000000000000000000000815250905080600360010190816106de9190611ceb565b506001600c5f6101000a81548160ff0219169083151502179055505f61078e6003600101805461070d90611b1b565b80601f016020809104026020016040519081016040528092919081815260200182805461073990611b1b565b80156107845780601f1061075b57610100808354040283529160200191610784565b820191905f5260205f20905b81548152906001019060200180831161076757829003601f168201915b50505050506113f7565b90505f60035f015482106107a2575f6107a5565b60015b90507ff5373daccd034d47b6154bae9edd1c805141531157a31fe8b99ac137c37b520083426040516107d8929190611dba565b60405180910390a15f73ffffffffffffffffffffffffffffffffffffffff167fcaf126c1b7df3cc94d90d37f4a60f866c0c7c56f50d45e3136fc1dc71e210eba826001604051610829929190611e2e565b60405180910390a2505050565b6001600381111561084a57610849611693565b5b600c60019054906101000a900460ff16600381111561086c5761086b611693565b5b146108ac576040517f08c379a00000000000000000000000000000000000000000000000000000000081526004016108a390611e9f565b60405180910390fd5b5f34116108ee576040517f08c379a00000000000000000000000000000000000000000000000000000000081526004016108e590611f07565b60405180910390fd5b5f600181111561090157610900611693565b5b81600181111561091457610913611693565b5b0361098b573460065f015f82825461092c9190611f52565b9250508190555034600e5f3373ffffffffffffffffffffffffffffffffffffffff1673ffffffffffffffffffffffffffffffffffffffff1681526020019081526020015f205f82825461097f9190611f52565b925050819055506109fa565b3460066001015f82825461099f9190611f52565b9250508190555034600f5f3373ffffffffffffffffffffffffffffffffffffffff1673ffffffffffffffffffffffffffffffffffffffff1681526020019081526020015f205f8282546109f29190611f52565b925050819055505b34600b5f828254610a0b9190611f52565b925050819055507f5fd7e45cc570ececa5a25e81af5f4acc6a2456c0fb1eee17751ec71677d32f3c4260065f0154600660010154600b54604051610a529493929190611f85565b60405180910390a13373ffffffffffffffffffffffffffffffffffffffff167f70bd4a33bf447720d717d08f3affb5aecfe4d2ebb8e3dd94539f5313e24476438234604051610aa2929190611fc8565b60405180910390a250565b610ab5611544565b5f4790505f8111610afb576040517f08c379a0000000000000000000000000000000000000000000000000000000008152600401610af290612039565b60405180910390fd5b3373ffffffffffffffffffffffffffffffffffffffff166108fc8290811502906040515f60405180830381858888f19350505050158015610b3e573d5f5f3e3d5ffd5b503373ffffffffffffffffffffffffffffffffffffffff167f7fcf532c15f0a6db0bd6d0e038bea71d30d808c7d98cb3bf7268a95bf5081b6582604051610b859190611737565b60405180910390a250565b600c5f9054906101000a900460ff1681565b60115481565b600f602052805f5260405f205f915090505481565b60145481565b610bcb611544565b610bd45f6115cb565b565b6010602052805f5260405f205f915054906101000a900460ff1681565b60025481565b610c01611544565b5f6003811115610c1457610c13611693565b5b600c60019054906101000a900460ff166003811115610c3657610c35611693565b5b14610c76576040517f08c379a0000000000000000000000000000000000000000000000000000000008152600401610c6d906120a1565b60405180910390fd5b6001600c60016101000a81548160ff02191690836003811115610c9c57610c9b611693565b5b021790555042601481905550565b5f5f5f9054906101000a900473ffffffffffffffffffffffffffffffffffffffff16905090565b6003805f015490806001018054610ce790611b1b565b80601f0160208091040260200160405190810160405280929190818152602001828054610d1390611b1b565b8015610d5e5780601f10610d3557610100808354040283529160200191610d5e565b820191905f5260205f20905b815481529060010190602001808311610d4157829003601f168201915b5050505050905082565b6008805f0154908060010154908060020154905083565b60026003811115610d9357610d92611693565b5b600c60019054906101000a900460ff166003811115610db557610db4611693565b5b14610df5576040517f08c379a0000000000000000000000000000000000000000000000000000000008152600401610dec90612109565b60405180910390fd5b601e601254610e049190611f52565b421015610e46576040517f08c379a0000000000000000000000000000000000000000000000000000000008152600401610e3d90612171565b60405180910390fd5b6003600c60016101000a81548160ff02191690836003811115610e6c57610e6b611693565b5b0217905550565b600d5481565b600380811115610e8c57610e8b611693565b5b600c60019054906101000a900460ff166003811115610eae57610ead611693565b5b14610eee576040517f08c379a0000000000000000000000000000000000000000000000000000000008152600401610ee5906121d9565b60405180910390fd5b600c5f9054906101000a900460ff16610f3c576040517f08c379a0000000000000000000000000000000000000000000000000000000008152600401610f3390612241565b60405180910390fd5b60105f3373ffffffffffffffffffffffffffffffffffffffff1673ffffffffffffffffffffffffffffffffffffffff1681526020019081526020015f205f9054906101000a900460ff1615610fc6576040517f08c379a0000000000000000000000000000000000000000000000000000000008152600401610fbd906122a9565b60405180910390fd5b5f61105b60036001018054610fda90611b1b565b80601f016020809104026020016040519081016040528092919081815260200182805461100690611b1b565b80156110515780601f1061102857610100808354040283529160200191611051565b820191905f5260205f20905b81548152906001019060200180831161103457829003601f168201915b50505050506113f7565b90505f60035f015490505f818310611073575f611076565b60015b90505f5f5f600181111561108d5761108c611693565b5b8360018111156110a05761109f611693565b5b036110f157600e5f3373ffffffffffffffffffffffffffffffffffffffff1673ffffffffffffffffffffffffffffffffffffffff1681526020019081526020015f2054915060065f0154905061113a565b600f5f3373ffffffffffffffffffffffffffffffffffffffff1673ffffffffffffffffffffffffffffffffffffffff1681526020019081526020015f2054915060066001015490505b5f821161117c576040517f08c379a000000000000000000000000000000000000000000000000000000000815260040161117390612311565b60405180910390fd5b5f81600b548461118c919061232f565b611196919061239d565b90505f6103e8600d54836111aa919061232f565b6111b4919061239d565b90505f81836111c391906123cd565b9050600160105f3373ffffffffffffffffffffffffffffffffffffffff1673ffffffffffffffffffffffffffffffffffffffff1681526020019081526020015f205f6101000a81548160ff0219169083151502179055503373ffffffffffffffffffffffffffffffffffffffff166108fc8290811502906040515f60405180830381858888f1935050505015801561125d573d5f5f3e3d5ffd5b503373ffffffffffffffffffffffffffffffffffffffff167f106f923f993c2149d49b4255ff723acafa1f2d94393f561d3eda32ae348f7241826040516112a49190611737565b60405180910390a25050505050505050565b6006805f0154908060010154905082565b60015481565b601380546112da90611b1b565b80601f016020809104026020016040519081016040528092919081815260200182805461130690611b1b565b80156113515780601f1061132857610100808354040283529160200191611351565b820191905f5260205f20905b81548152906001019060200180831161133457829003601f168201915b505050505081565b611361611544565b8060035f018190555050565b611375611544565b5f73ffffffffffffffffffffffffffffffffffffffff168173ffffffffffffffffffffffffffffffffffffffff16036113e5575f6040517f1e4fbdf70000000000000000000000000000000000000000000000000000000081526004016113dc9190611869565b60405180910390fd5b6113ee816115cb565b50565b600b5481565b5f5f8290505f5f90505f5f90505b825181101561153957603060f81b83828151811061142657611425612400565b5b602001015160f81c60f81b7effffffffffffffffffffffffffffffffffffffffffffffffffffffffffffff1916101580156114a45750603960f81b83828151811061147457611473612400565b5b602001015160f81c60f81b7effffffffffffffffffffffffffffffffffffffffffffffffffffffffffffff191611155b6114e3576040517f08c379a00000000000000000000000000000000000000000000000000000000081526004016114da90612477565b60405180910390fd5b60308382815181106114f8576114f7612400565b5b602001015160f81c60f81b60f81c60ff1661151391906123cd565b600a83611520919061232f565b61152a9190611f52565b91508080600101915050611405565b508092505050919050565b61154c61168c565b73ffffffffffffffffffffffffffffffffffffffff1661156a610caa565b73ffffffffffffffffffffffffffffffffffffffff16146115c95761158d61168c565b6040517f118cdaa70000000000000000000000000000000000000000000000000000000081526004016115c09190611869565b60405180910390fd5b565b5f5f5f9054906101000a900473ffffffffffffffffffffffffffffffffffffffff169050815f5f6101000a81548173ffffffffffffffffffffffffffffffffffffffff021916908373ffffffffffffffffffffffffffffffffffffffff1602179055508173ffffffffffffffffffffffffffffffffffffffff168173ffffffffffffffffffffffffffffffffffffffff167f8be0079c531659141344cd1fd0a4f28419497f9722a3daafe3b4186f6b6457e060405160405180910390a35050565b5f33905090565b7f4e487b71000000000000000000000000000000000000000000000000000000005f52602160045260245ffd5b600481106116d1576116d0611693565b5b50565b5f8190506116e1826116c0565b919050565b5f6116f0826116d4565b9050919050565b611700816116e6565b82525050565b5f6020820190506117195f8301846116f7565b92915050565b5f819050919050565b6117318161171f565b82525050565b5f60208201905061174a5f830184611728565b92915050565b5f5ffd5b5f73ffffffffffffffffffffffffffffffffffffffff82169050919050565b5f61177d82611754565b9050919050565b61178d81611773565b8114611797575f5ffd5b50565b5f813590506117a881611784565b92915050565b5f602082840312156117c3576117c2611750565b5b5f6117d08482850161179a565b91505092915050565b600281106117e5575f5ffd5b50565b5f813590506117f6816117d9565b92915050565b5f6020828403121561181157611810611750565b5b5f61181e848285016117e8565b91505092915050565b5f8115159050919050565b61183b81611827565b82525050565b5f6020820190506118545f830184611832565b92915050565b61186381611773565b82525050565b5f60208201905061187c5f83018461185a565b92915050565b5f81519050919050565b5f82825260208201905092915050565b8281835e5f83830152505050565b5f601f19601f8301169050919050565b5f6118c482611882565b6118ce818561188c565b93506118de81856020860161189c565b6118e7816118aa565b840191505092915050565b5f6040820190506119055f830185611728565b818103602083015261191781846118ba565b90509392505050565b5f6060820190506119335f830186611728565b6119406020830185611728565b61194d6040830184611728565b949350505050565b5f6040820190506119685f830185611728565b6119756020830184611728565b9392505050565b5f6020820190508181035f83015261199481846118ba565b905092915050565b6119a58161171f565b81146119af575f5ffd5b50565b5f813590506119c08161199c565b92915050565b5f602082840312156119db576119da611750565b5b5f6119e8848285016119b2565b91505092915050565b7f4d61726b6574206e6f7420696e2042696464696e6720706861736500000000005f82015250565b5f611a25601b8361188c565b9150611a30826119f1565b602082019050919050565b5f6020820190508181035f830152611a5281611a19565b9050919050565b7f546f6f206561726c7920746f207265736f6c76650000000000000000000000005f82015250565b5f611a8d60148361188c565b9150611a9882611a59565b602082019050919050565b5f6020820190508181035f830152611aba81611a81565b9050919050565b7f4e487b71000000000000000000000000000000000000000000000000000000005f52604160045260245ffd5b7f4e487b71000000000000000000000000000000000000000000000000000000005f52602260045260245ffd5b5f6002820490506001821680611b3257607f821691505b602082108103611b4557611b44611aee565b5b50919050565b5f819050815f5260205f209050919050565b5f6020601f8301049050919050565b5f82821b905092915050565b5f60088302611ba77fffffffffffffffffffffffffffffffffffffffffffffffffffffffffffffffff82611b6c565b611bb18683611b6c565b95508019841693508086168417925050509392505050565b5f819050919050565b5f611bec611be7611be28461171f565b611bc9565b61171f565b9050919050565b5f819050919050565b611c0583611bd2565b611c19611c1182611bf3565b848454611b78565b825550505050565b5f5f905090565b611c30611c21565b611c3b818484611bfc565b505050565b5b81811015611c5e57611c535f82611c28565b600181019050611c41565b5050565b601f821115611ca357611c7481611b4b565b611c7d84611b5d565b81016020851015611c8c578190505b611ca0611c9885611b5d565b830182611c40565b50505b505050565b5f82821c905092915050565b5f611cc35f1984600802611ca8565b1980831691505092915050565b5f611cdb8383611cb4565b9150826002028217905092915050565b611cf482611882565b67ffffffffffffffff811115611d0d57611d0c611ac1565b5b611d178254611b1b565b611d22828285611c62565b5f60209050601f831160018114611d53575f8415611d41578287015190505b611d4b8582611cd0565b865550611db2565b601f198416611d6186611b4b565b5f5b82811015611d8857848901518255600182019150602085019450602081019050611d63565b86831015611da55784890151611da1601f891682611cb4565b8355505b6001600288020188555050505b505050505050565b5f6040820190508181035f830152611dd281856118ba565b9050611de16020830184611728565b9392505050565b60028110611df957611df8611693565b5b50565b5f819050611e0982611de8565b919050565b5f611e1882611dfc565b9050919050565b611e2881611e0e565b82525050565b5f604082019050611e415f830185611e1f565b611e4e6020830184611832565b9392505050565b7f4e6f7420696e2042696464696e672070686173650000000000000000000000005f82015250565b5f611e8960148361188c565b9150611e9482611e55565b602082019050919050565b5f6020820190508181035f830152611eb681611e7d565b9050919050565b7f56616c7565206d7573742062652067726561746572207468616e207a65726f005f82015250565b5f611ef1601f8361188c565b9150611efc82611ebd565b602082019050919050565b5f6020820190508181035f830152611f1e81611ee5565b9050919050565b7f4e487b71000000000000000000000000000000000000000000000000000000005f52601160045260245ffd5b5f611f5c8261171f565b9150611f678361171f565b9250828201905080821115611f7f57611f7e611f25565b5b92915050565b5f608082019050611f985f830187611728565b611fa56020830186611728565b611fb26040830185611728565b611fbf6060830184611728565b95945050505050565b5f604082019050611fdb5f830185611e1f565b611fe86020830184611728565b9392505050565b7f4e6f2062616c616e636520746f2077697468647261772e0000000000000000005f82015250565b5f61202360178361188c565b915061202e82611fef565b602082019050919050565b5f6020820190508181035f83015261205081612017565b9050919050565b7f4d61726b6574206e6f7420696e2054726164696e6720706861736500000000005f82015250565b5f61208b601b8361188c565b915061209682612057565b602082019050919050565b5f6020820190508181035f8301526120b88161207f565b9050919050565b7f4d61726b6574206e6f7420696e206d61747572697479207068617365000000005f82015250565b5f6120f3601c8361188c565b91506120fe826120bf565b602082019050919050565b5f6020820190508181035f830152612120816120e7565b9050919050565b7f546f6f206561726c7920746f20657870697265000000000000000000000000005f82015250565b5f61215b60138361188c565b915061216682612127565b602082019050919050565b5f6020820190508181035f8301526121888161214f565b9050919050565b7f4d61726b6574206e6f7420696e206578706972792070686173650000000000005f82015250565b5f6121c3601a8361188c565b91506121ce8261218f565b602082019050919050565b5f6020820190508181035f8301526121f0816121b7565b9050919050565b7f4d61726b6574206973206e6f74207265736f6c766564207965740000000000005f82015250565b5f61222b601a8361188c565b9150612236826121f7565b602082019050919050565b5f6020820190508181035f8301526122588161221f565b9050919050565b7f52657761726420616c726561647920636c61696d6564000000000000000000005f82015250565b5f61229360168361188c565b915061229e8261225f565b602082019050919050565b5f6020820190508181035f8301526122c081612287565b9050919050565b7f4e6f206465706f73697473206f6e2077696e6e696e67207369646500000000005f82015250565b5f6122fb601b8361188c565b9150612306826122c7565b602082019050919050565b5f6020820190508181035f830152612328816122ef565b9050919050565b5f6123398261171f565b91506123448361171f565b92508282026123528161171f565b9150828204841483151761236957612368611f25565b5b5092915050565b7f4e487b71000000000000000000000000000000000000000000000000000000005f52601260045260245ffd5b5f6123a78261171f565b91506123b28361171f565b9250826123c2576123c1612370565b5b828204905092915050565b5f6123d78261171f565b91506123e28361171f565b92508282039050818111156123fa576123f9611f25565b5b92915050565b7f4e487b71000000000000000000000000000000000000000000000000000000005f52603260045260245ffd5b7f496e76616c696420707269636520737472696e670000000000000000000000005f82015250565b5f61246160148361188c565b915061246c8261242d565b602082019050919050565b5f6020820190508181035f83015261248e81612455565b905091905056fea2646970667358221220fc9b2db6353d0583b8e78837475f5207bfb8eeb6acd2a907dd5f2bc9c1ae613b64736f6c634300081c0033",
    "linkReferences": {}
  },
  "methodIdentifiers": {
    "bid(uint8)": "33500e26",
    "biddingStartTime()": "553fc574",
    "claimReward()": "b88a802f",
    "currentPhase()": "055ad42e",
    "deployTime()": "7a40624b",
    "expireMarket()": "9e891f3e",
    "feePercentage()": "a001ecdd",
    "fees()": "9af1d35a",
    "hasClaimed(address)": "73b2e80e",
    "longBids(address)": "1955e146",
    "maturityTime()": "4e8bfdaa",
    "oracleDetails()": "98508ecd",
    "owner()": "8da5cb5b",
    "positions()": "ba5b7982",
    "renounceOwnership()": "715018a6",
    "resolveMarket()": "2b9b55b3",
    "resolveTime()": "05ed76c4",
    "resolved()": "3f6fa655",
    "setStrikePrice(uint256)": "e488cd9f",
    "shortBids(address)": "51b72dc5",
    "startBidding()": "7d7b39e4",
    "strikePrice()": "c52987cf",
    "totalDeposited()": "ff50abdc",
    "tradingPair()": "d42f6e39",
    "transferOwnership(address)": "f2fde38b",
    "withdraw()": "3ccfd60b"
  },
  "id": 0
}